:1000000010C01FC01EC01DC01CC01BC01AC019C01C
:1000100018C017C016C015C014C013C012C011C03C
:1000200010C011241FBECFE5D1E0DEBFCDBF20E060
:10003000A0E6B0E001C01D92A136B207E1F750D0B2
:100040005CC0DECF98B3982B98BB98B3262F209531
:10005000922398BB97B3982B97BB97B3962B97BBDC
:100060001092600090916000941760F4EFECF7E05C
:100070003197F1F700C00000909160009F5F90936E
:100080006000F0CF97B38095892387BB87B3822325
:1000900087BB08951F93CF93DF93182FC62FD0E00F
:1000A000D117D1F04C2F60E881E0CCDF4C2F60E815
:1000B00084E0C8DF4C2F61E080E8C4DF4C2F61E0B2
:1000C00084E0C0DF4C2F64E080E8BCDF4C2F64E0AC
:1000D00081E0B8DFDF5FE4CFDF91CF911F9108951A
:1000E00080E886BD16BC64E681E0D4DF64E183E08D
:0E00F000D1DF61E084E6CEDFF6CFF894FFCFDB
:00000001FF
