:1000000010C01FC01EC01DC01CC01BC01AC019C01C
:1000100018C017C016C015C014C013C012C011C03C
:1000200010C011241FBECFE5D1E0DEBFCDBF10E070
:10003000A0E6B0E001C01D92A236B107E1F7CCD036
:10004000FFC0DECFFC019081862F8095982390839E
:10005000A7ECB0E01197F1F700C00000908140FFDD
:1000600002C0962B01C098239083A7ECB0E01197B3
:10007000F1F700C00000908141FF02C0962B01C043
:1000800098239083A7ECB0E01197F1F700C000002F
:10009000908142FF02C0962B01C098239083A7EC69
:1000A000B0E01197F1F700C00000908143FF02C05B
:1000B000962B01C098239083A7ECB0E01197F1F73D
:1000C00000C00000908144FF02C0962B01C098231D
:1000D0009083A7ECB0E01197F1F700C00000908189
:1000E00045FF02C0962B01C098239083A7ECB0E097
:1000F0001197F1F700C00000908146FF02C0962BD7
:1001000001C098239083A7ECB0E01197F1F700C0ED
:10011000000047FF04C08081862B808303C090814C
:100120009823908387EC90E00197F1F700C00000DE
:100130008081862B8083A7ECB0E01197F1F700C097
:10014000000087EC90E00197F1F700C000000895EF
:1001500083E087B987E886B9369A3699FECF44B1ED
:100160004093610062E08BE390E06CDF8FE19EE4FE
:100170000197F1F700C0000045B14093610062E0D3
:100180008BE390E05FDF8FE19EE40197F1F700C021
:100190000000089582E087B987E886B9369A3699D3
:1001A000FECF44B14093600062E08BE390E04ADF11
:1001B0008FE19EE40197F1F700C0000045B1409344
:1001C000600062E08BE390E03DDF8FE19EE4019709
:1001D000F1F700C00000089580E886BD16BCD99AEA
:1001E000D19A41E062E08BE390E02CDF8FE19EE466
:1001F0000197F1F700C0000042E062E08BE390E07D
:1002000021DF8FE19EE40197F1F700C0000043E099
:1002100062E08BE390E016DF8FE19EE40197F1F757
:1002200000C0000044E062E08BE390E00BDF8FE170
:100230009EE40197F1F700C000008ADFABDFD1CF69
:04024000F894FFCF60
:00000001FF
