:1000000010C01FC01EC01DC01CC01BC01AC019C01C
:1000100018C017C016C015C014C013C012C011C03C
:1000200010C011241FBECFE5D1E0DEBFCDBF20E060
:10003000A0E6B0E001C01D92A136B207E1F788D07A
:10004000DAC0DECFFC019081862F809598239083C3
:10005000ADEFB1E01197F1F700C00000908140FFD3
:1000600002C0962B01C098239083ADEFB1E01197A9
:10007000F1F700C00000908141FF02C0962B01C043
:1000800098239083ADEFB1E01197F1F700C0000025
:10009000908142FF02C0962B01C098239083ADEF60
:1000A000B1E01197F1F700C00000908143FF02C05A
:1000B000962B01C098239083ADEFB1E01197F1F733
:1000C00000C00000908144FF02C0962B01C098231D
:1000D0009083ADEFB1E01197F1F700C0000090817F
:1000E00045FF02C0962B01C098239083ADEFB1E08D
:1000F0001197F1F700C00000908146FF02C0962BD7
:1001000001C098239083ADEFB1E01197F1F700C0E3
:10011000000047FF04C08081862B808303C090814C
:10012000982390838DEF91E00197F1F700C00000D4
:100130008081862B8083ADEFB1E01197F1F700C08D
:1001400000008DEF91E00197F1F700C000000895E5
:1001500080E886BD16BCDB9AD39A83E087B987E82E
:1001600086B941E068E08BE390E06CDF8FE493ECCC
:100170000197F1F700C0000042E068E08BE390E0F7
:1001800061DF8FE493EC0197F1F700C0000043E0DA
:1001900068E08BE390E056DF8FE493EC0197F1F792
:1001A00000C0000044E068E08BE390E04BDF8FE4A8
:1001B00093EC0197F1F700C00000369A3699FECF14
:1001C00044B14093600068E08BE390E03BDF8FE454
:1001D00093EC0197F1F700C0000045B14093600037
:1001E00068E08BE390E02EDF8FE493EC0197F1F76A
:0A01F00000C00000B6CFF894FFCF66
:00000001FF
